:100000000C94AF0A0C9473200C944C200C94252073
:100010000C94FE1F0C94E40A0C94E40A0C94D71F71
:100020000C94E40A0C94E40A0C949A200C94092190
:100030000C94E40A0C94E40A0C94E40A0C94E40A88
:100040000C94E40A0C9471250C94E40A0C94E40AD0
:100050000C94E40A0C94E40A0C94E40A0C948D1FAA
:100060000C94E40A0C94E40A0C94E40A0C94E40A58
:100070000C94E40A0C94E40A0C94E40A0C94E40A48
:100080000C94E40A0C94E40A0C94E40A0C94E40A38
:100090000C943B230C94E40A0C94E40A0C94E40AB8
:1000A0000C94E40A0C94E40A0C94E40A080B000291
:1000B0000202000009040000010202000005240001
:1000C0001001052401010104240206052406000193
:1000D0000705810310004009040100020A00000026
:1000E00007050202400000070583024000000403E8
:1000F000090412010002EF02014041233680000191
:100100000102030141726475696E6F204C4C43001B
:1001100041726475696E6F204C656F6E6172646FB9
:10012000003D3D3D2043414C3A20D0B3D0BED1826A
:10013000D0BED0B2D0BE203D3D3D00D0A4D0B8D07E
:10014000B7D0B8D187D0B5D181D0BAD0B8D0B92086
:10015000D0B4D0B8D0BED0B4202300D097D0B0D087
:10016000BFD0B8D188D0B820D184D0B8D0B7D0B85B
:10017000D187D0B5D181D0BAD0B8D0B920D0BFD036
:10018000BED180D18FD0B4D0BED0BA20D0B820D0CC
:10019000B2D180D183D187D0BDD183D18E20D0B7C9
:1001A000D0B0D0BFD0BED0BBD0BDD0B8204C45441D
:1001B0005F4D415020D0B2202E696E6F2E00D0943A
:1001C000D0B8D0BED0B4D18B20D0B7D0B0D0B3D0BF
:1001D000BED180D18FD182D181D18F20D0BFD0BE6E
:1001E00020D0BED0B4D0BDD0BED0BCD18320D0B141
:1001F000D0B5D0BBD18BD0BC2C20D0BDD0BED0BC14
:10020000D0B5D180202D20D0B220D0BAD0BED0BD64
:10021000D181D0BED0BBD0B82E003D3D3D20434162
:100220004C3A20D0BAD0B0D0BBD0B8D0B1D180D069
:10023000BED0B2D0BAD0B0204C45445F4D41502022
:100240003D3D3D0042544E3A434C49434B00454EE0
:10025000433A0000000000240027002A002D00304F
:100260000000000000250028002B002E00310000B7
:100270000000002300260029002C002F00040404A5
:10028000040403040502020202040302020202063D
:10029000060606060604040202020404040802011B
:1002A00010408040102040804080080204018040BF
:1002B00020100201108010204040200000000200A9
:1002C000090F0000030401000C0000000000000002
:1002D00000000000000000000000650003020304AD
:1002E000030504060D00FE09FE0AFF015F02C404B7
:1002F000032005006E0721074943C7210922079BF8
:100300005A476209230E3D464F294906A53228A5C2
:100310002401240F4D4257362851926D49940C5AAE
:1003200004250D4D424FA474CC8A498B9400260EAF
:1003300045424F9644495689A22952022706195B25
:10034000C700280BDB3E57122551B7280B290CDBC1
:100350003E47166551972889002A0A2D5257A5B2A3
:100360003445002B0A2D4A57180D5218012C079BB3
:100370003E8F52022D060D52C7202E089B3E4FB2D3
:1003800024002F0B4D42672DCC8A591802300B4D9B
:10039000425796D4BC25B508310B4D4257262561EE
:1003A0004F8300320B4D42CF926961D67110330CEE
:1003B0004D42C72066B535D49205340F4D425F9843
:1003C0004949949492410B1300350C4D42C7B162D8
:1003D0000A432D5900360D4D42CF9289E19064B603
:1003E0006401370C4D42C72066611666610D380DF9
:1003F0004D42CF92D99225B3250B00390D4D42CFF6
:1004000092D992210CB564013A0BC33E4FB2E44835
:10041000B224003B0AC33E4FB2E48852023C084D6E
:100420004267D6B5033D09254AC7A06383003E094C
:100430004D4247DAAD23003F0C4D42CF92696156E1
:10044000CCA108400D4D42CF92999644492CE91019
:10045000410C4D425796D46CC390D90242104D4284
:10046000C71055A2244AA64A94448302430B4D4226
:10047000CF9289BD250B0044124D42C71055A224CE
:100480004AA2244AA2241A1400450B4D42C7B1388F
:1004900024617110460B4D42C7B1382461230047D7
:1004A0000C4D42CF92894D9B962C00480B4D4247F4
:1004B000E6360C995B004908CB42C712F5654A0B3A
:1004C0004D42D716F6124512004B0D4D4247664A73
:1004D0004A5A1255322D4C094D4247D88F83004D50
:1004E0000D4D4247A62D4BA2249A5B004E0D4D4266
:1004F00047364D4AA224D24D0B4F0A4D42CF92F9B6
:100500002D5900500C4D42C79064B641091B015152
:100510000A553ECF92F9A5B206520D4D42C79064DE
:10052000B6412955322D530C4D42CF9289E91A6AB2
:10053000C90254094D42C72085FD0455094D424763
:10054000E66FC902560D4D4247E696949228C9C2FD
:1005500008570D4D4247E62551122551BA00580E55
:100560004D4247A625A524AB44494D0B590C4D429D
:1005700047A625A5240B3B015A0C4D42C7206661B6
:1005800056CCC2415B09DB3EC710F5A7015C0B4DA1
:100590004247988669310D035D09DB3EC7D49F86CB
:1005A000005E081D5A5796D4025F060D3EC72060B4
:1005B0000612634714610B3542CF9A0C9AA42801A6
:1005C000620C4D4247581C92CC6D5000630A354274
:1005D000CF9289B56401640B4D4267CBA0B9254326
:1005E00000650C3542CF920D4398250B00660C4DEB
:1005F00042975409B3210ADB00670C453ACF92D9E0
:100600009221D49205680A4D4247D862D2DC026931
:1006100008C3424F2875196A0B543A5FACB549526A
:10062000A2006B0D4D4247D89494B424AA64016C87
:1006300008CB4287D42F036D0D354287D2A2244ABE
:10064000A2245A006E0935424762D2DC026F0A3595
:1006500042CF92B9250B00700C453AC79064B64161
:10066000098B00710A453ACFA0D992216C720935E5
:10067000424762121B01730C3542CF92256A9225C4
:100680000B00740C45424F980D51D8142900750980
:10069000354247E6495102760B354247664B4A4997
:1006A0001601770B35424766499444E902780B35C9
:1006B000424796D4C22CA905790C453A47E6A428AE
:1006C000A1962C007A093542C7A0751C047B0B5DEE
:1006D0003E9F1436A961AB007C064943C7037D0BDE
:1006E0005D3E871AB64A6193067E091D5A4FA424BF
:1006F0005202000000080464055BFFFF04000E5571
:10070000424F9A0F63382461380804010F55424F55
:10071000298987311C92301C040402135D3AC720DA
:1007200085A19644499444499484590204030C5584
:1007300042579623C326760404040D4D42D7928572
:10074000E19084693A04050D4D42CF9289E91A6A15
:10075000C902040609CB42C712F56504070D5542CC
:100760004F29890729EC340804080C4D42D716F6A6
:10077000124512000409124D428F94444994448951
:1007800052511225B100040A134D4247122551124D
:1007900025D190549444492C00040B114D42C7209C
:1007A00085A19644499444499404040C0F5D425F2A
:1007B000293325252D892A9916040D0D55424F9A66
:1007C00067D22599262D040E0E55424796CC992DB9
:1007D00019C2CA02040F0C5D3A47E66FC314460003
:1007E00004100D4D425796D46CC390D90204110EDB
:1007F0004D42C79084C521C96C830204120E4D423C
:10080000C79064B641C96C830204130A4D42C74DB8
:10081000EC2300041413553E97944449944449949E
:1008200044499424C31604150C4D42C7B1382461C1
:1008300071100416114D424792288952D9B2A5A2CF
:10084000244A0104170D4D42CF92852535D49205D7
:1008500004180E4D424766BA244A324D5A00041914
:100860000E55424796CC997449A6490B041A0E4D71
:100870004247664A4A5A1255322D041B114D42D73F
:10088000122551122551122591A605041C0E4D4228
:1008900047B60CC9922889E616041D0C4D4247E65E
:1008A000360C995B00041E0B4D42CF92F92D590076
:1008B000041F094D42C7CDDF0204200D4D42C790F1
:1008C000646E8312160104210C4D42CF9289BD251E
:1008D0000B0004220A4D42C72085FD0404230D4D60
:1008E0004247E62D19422D59000424104D4257B6B7
:1008F0005494444994CA16460004250F4D4247A615
:1009000025A524AB44494D0B0426145D3A47944475
:10091000499444499444499444C9201604270B4DF2
:100920004247E6960C61070428134D4247922889F6
:100930009228899228899228C9300429145D3A475F
:100940009228899228899228899228C93016042AE7
:100950000E4D4287D83855A2244A1600042B0C4D60
:100960004247661B12E98312042C0D4D4247D838CA
:1009700024996D5000042D0D4D42C75A4C86B096F7
:100980004C00042E134D42479454944449864449E4
:10099000944449A404042F0E4D42CFA0D992214A79
:1009A0004A9A1604300C3542CF9A0C9AA4280104B6
:1009B000310E4D4267B2844392B9250B0004320DCB
:1009C0003542C7906483926983020433093542C774
:1009D0004D6C0404340F3D3E97944449944449328D
:1009E0006C0104350D3542CF920D4398250B000460
:1009F000360D35424792289569A9280504370C35EC
:100A000042CF9245AA962C0004380B354247665ACD
:100A100092490B04390D4D424796CC996949262DD0
:100A2000043A0C35424726255325D302043B0D35A5
:100A300042D712255112259116043C0D354247B676
:100A40002C8992685A00043D0B354247A60D436637
:100A50000B043E0B3542CF92B9250B00043F0935FC
:100A600042C7CD5B0004400D453AC79064B64109CA
:100A70008B0004410B3542CF9289B5640104420AD0
:100A80003542C7A514360104430D453A47E6A4286C
:100A9000A1962C00044411553A57982D1525511252
:100AA000A5B285110004450B35424796D42A352D51
:100AB000044610453A47944449944449940C6201D1
:100AC00004470B354247664B86B00004480F354259
:100AD00047922889922889920C03044910453A4785
:100AE000922889922889920C6301044A0C35428726
:100AF000184E95285900044B0C354247A60D8974B1
:100B00005002044C0D354247180E49A60D0A000448
:100B10004D0C3542C7904663382800044E0F3542CD
:100B200047945494644894444A00044F0D3542CF8E
:100B3000A069C990445A0004500F4D424F9A234B6C
:100B4000360C61962C0004510F4D424F29C9976C09
:100B500018C22C59000452135D3A4FB68549A4942B
:100B60009228899228CC120004530C4D42579623A8
:100B7000C326360204540B3542CF204E613A04049A
:100B8000550D3542CF92256A92250B00045609C3B4
:100B9000424F28751904570C4D424F29C9C54E8341
:100BA0000004580C543A5FACB54952A20004590EE7
:100BB00035428F9444895251120B00045A0E35422B
:100BC000471225D1905494C402045B104D424FB695
:100BD0008549A4949228899228045C0E4D42579628
:100BE0002399944C954C0B045D0D4D424F9A67A68A
:100BF0002599B400045E0F5D3A4796CC9993A28480
:100C00005AB200045F0B453A47E66D98C20804608B
:100C10000E4D424F9B4BA2244AA2740104610C3535
:100C2000424F9B922889D2050462104D424F3644B0
:100C3000613855A2244A160004630D45424F986D51
:100C4000E1548992050464124D4247B444499444E6
:100C5000C312255112450204650D354247B444C301
:100C6000122551240466114D4257982551122535FD
:100C7000255112A50004670D3542579644494D4948
:100C800094020468124D42479444499424C3654831
:100C90008664480604690E3542479444C9B00CC9BD
:100CA000900C046A104D42C72D2925D152511225AE
:100CB000510A046B0D3542C7A0949268A928050417
:100CC0006C114E4247B2F42F43942C4AB2244B018C
:100CD000046D0E354247322489940CCB900C046E7F
:100CE00010653A4F14E94B16466A982CE902046FD6
:100CF000105D3A4F14E94B16A961B2A40B000470C1
:100D0000114D424792288992288952D9C212000473
:100D10007110453A4792288992288952D9C208040D
:100D2000720E4D42CF92D98621B3250B0004730C6D
:100D3000B4428F120D939428000474114D4247342D
:100D400025511255A2244AB2300204750D3542478E
:100D5000342551254AB20804761156424794457904
:100D600034446D499684690604770F4D4247D41A7E
:100D70004D495489922C020478155D3A4F964449A6
:100D8000940CC9900CC9902C8998250004791045C1
:100D90003A4F72488664489644CC1200047A0D5D3E
:100DA0003E57B654345F2A5B04047B0D453E57B66C
:100DB00054344B658B00047C125D428F14293AD267
:100DC000A6244AA2244A1700047D1055428F1429F4
:100DD0003AD2A6244AA27401047E105542C7A59CAB
:100DE000D49444499444E902047F0F4D42C7A59C22
:100DF000D4944449942E0004800C5D3ACF9219BBE0
:100E00008E150004810B3D3ECF9289E95801048282
:100E10000D354A5792258954C992080483091E62E8
:100E2000EF30A8000484081662CF940904850815E1
:100E300062CF22050486081562CF12090488106E5D
:100E40003A4F98E46192730B933C4C0204890E6E06
:100E50003A4F184EA9CE2D0CA754048A10653A4774
:100E600096CC997449A6492B2600048B0F5D3A470E
:100E700096CC99694926AD9800048C0F4D424F9845
:100E80006DE1548992285900048D0D3D424FB6857D
:100E900053254A1600048E0E4D42C790642EC9A0F9
:100EA000646208048F0E453AC790649664503231EC
:100EB0000404900A5542E73084FD0804910A3D423B
:100EC000E730841D0104920E4D42CF904449986D45
:100ED000611B0004930C3542CF90444316D60004A6
:100EE000940C553EC7B13824995B0504950B3D3EE3
:100EF000C77148325B0504960E5E3A47D29FC670B2
:100F00004AFA452D04970D463A47D2D336255DD48B
:100F10000204980E5D3ACF92852535D492AD060431
:100F2000990D453ACF9245AA966C3500049A125D08
:100F30003A479444492989B424AA44492416049B75
:100F40000E453A479494B424AA446201049C104D7F
:100F50004247A62496D294448952D102049D0D356D
:100F600042479258A644A96801049E0F4D424F344F
:100F7000244D9A2D892A5100049F0F4D424F986DA0
:100F80005152D292A8120504A00F4D4287944449B1
:100F900049B32551250A04A10D3542879494B42400
:100FA000AA440104A2145D3A479444499444C99068
:100FB0004449944449241604A310453A479444C92B
:100FC0009044499444620104A4134D424732245191
:100FD0001225D19444499444490404A50F3542474D
:100FE0003224D194444994440004A6145D3AC79431
:100FF000444994448952511225518A590204A71038
:10100000453AC7944489525112A598250004A81066
:10101000553ECF928951525112A5B2A50204A90C96
:101020003D3ECF124649CB960A04AA0D5D3ACF92B7
:1010300089BD255B9A0004AB0D453ACF9289B56412
:101040004B130004AC0C5D3AC720857D142B0004C3
:10105000AD0C453AC7A51416C50A0004AE0D4D42A5
:1010600047A625A5240B3B0104AF0D453A47A6250D
:10107000A5240B9B0004B00F4D4247A625A5248B49
:1010800006292C0104B10F453A47A625A5248B0655
:10109000298C0004B2135E3A47966451922561256B
:1010A0004BA22CC9D40204B30E463A47162561253B
:1010B000CA924C2D04B4145D3AC7524AA2244AA2E3
:1010C000244AA2244A86B00004B50F453AC7524AC2
:1010D000A2244AA264080B04B6115D3A479444491D
:1010E000944449148D45B10004B70D453A479444E2
:1010F00049148DA15804B80F4D4247E69228952116
:101100004AA2240C04B90C35424766A90C511206B8
:1011100004BA0C4D4247581C92CC5B0004BB0B4CEC
:101120004247D6B6444E0104BC0F4D4297548992B3
:101130006858C252A40004BD0D354297140D4B18D7
:10114000450A0004BE115D3A975489926858C2520C
:10115000A4A5090004BF0E453A97140D4B18455A33
:101160009A0004C009CB42C712F56504C1125D4262
:101170004796CC49A2244A655A2A4AA21404C20FAF
:101180004D424796CC49A254A6A5A21404C3115DB2
:101190003A47664A4A5A1255322D8C140004C40E3E
:1011A000453A4726255325D3C2480104C5135D3A65
:1011B000D7122551122551122591A615130004C6E8
:1011C0000F453AD7122551122591564C0004C70EEF
:1011D0005D3A47E6360C995B18290004C80D453A7C
:1011E00047A60D43660B230504C90D5D3A47E63655
:1011F0000C995B310104CA0D453A47A60D43662B95
:10120000260004CB0E5D3A47E62D19C29A16260039
:1012100004CC0D453A47664B8630D3C20404CD104A
:101220005D3A47B60CC9922889E6564C0004CE0EAA
:10123000453A47B62C8992685A310104D01055427C
:101240004796EC4896D4B461C8B40004D10E4D4220
:101250004796EC6B326892A20404D21055424F2993
:10126000C9912CA969C390690104D30E4D424F293D
:10127000C9D764D024450904D4124D424FB2444921
:1012800094448932255112250304D50C3542CF965A
:10129000244B29E90204D60F55424796CCC3180EB9
:1012A00049180E0204D70F4D424796EC4B360C619D
:1012B000962C0004D80E4D42CF9285E13064B6647E
:1012C0000104D90D3542CF9285C390250B0004DA75
:1012D0001055424F29C9972C1C864C4B160004DB35
:1012E0000F4D424F29C9972C1C862C590004DC1045
:1012F00055424F29899344A96CD952510A04DD0FF4
:101300004D424F29899344A94C4B452904DE0F5582
:10131000424F29C9972C8C542D590004DF0E4D42A1
:101320004F29C9972C52B5640104E00D4D42C720E6
:1013300066B535D4920504E10D453AC7A0D5D6501F
:101340004B160004E20D4D42C7A066D22599262D0A
:1013500004E30D4542C7A066A62599B40004E40E37
:1013600055424F298933E9924C931604E50E4D42BC
:101370004F298933D3924C5A0004E60D55424F2928
:10138000C997CC5BB20004E70D4D424F29C997CCF9
:101390002D590004E80F4D42CF926943A20C992DBC
:1013A000590004E90D3542CF920D893264C9020417
:1013B000EA1055424F29C9976C489421D3920504ED
:1013C000EB104D424F29C9976C4894214B160004ED
:1013D000EC0E55424F2989D7CA1066C90404ED0E98
:1013E0004D424F298987341AC3410104EE0E4D4204
:1013F000C7A066264509B5640104EF0E553AC7A09B
:10140000664E8A126AC90204F00F55424F29893389
:1014100093A2845AB20004F10F5D3A4F2989332711
:101420004509B5640104F20F55424F24C59949514D
:10143000422D590004F30F5D3A4F24C59993A284BD
:101440005AB20004F40D55424F2989335B32840DA2
:1014500004F50D4D424F2989335B32840504F80EA3
:1014600055424F2989336D48A4072504F90E4D4292
:101470004F2989336D48A4831205000C4D4267CB78
:10148000A0B925430005010BCC425FCB10392503E1
:101490000502104D425758939228499444A92C00B4
:1014A00005030E4D4257D82625519228950505046F
:1014B0000E4D424F96846D51254AB20405050C35F8
:1014C00042871A6651254B0005060C5D3A8F546C15
:1014D00052C36A1805070C453AC71A466A9886012E
:1014E0000508134D428F94444994444994244AA2D8
:1014F00024520205090F35428F94444994244A220C
:101500002500050A134D42471225511225D1942476
:101510004AA2245202050B0F3542471225D19424CA
:101520004A222500050C0D4D42CF92894D9B962CE9
:1015300000050D0C3542CF9289D1962C00050E0E78
:101540004D42C720855DA2244AB204050F0D3542E5
:10155000C720859528C912000000AE25D52B11247F
:101560001FBECFEFDAE0DEBFCDBF84B714BE0FB62B
:10157000F894A89580916000886180936000109233
:1015800060000FBE12E0A0E0B1E0EEE3FEE502C0B5
:1015900005900D92AE32B107D9F727E0AEE2B2E086
:1015A00001C01D92A63FB207E1F71AE0CEEADAE0E9
:1015B00004C02197FE010E94182ECD3AD107C9F729
:1015C0000E94C2260C94122F0C940000662329F06E
:1015D0006A3019F0862F90E008958FEF9FEF0895FD
:1015E000AF92BF92CF92DF92EF92FF920F93CF9381
:1015F000DF93EC01DA017901942F9770E1E0F0E0DC
:101600009F01092E01C0220F0A94EAF7522F6E01A2
:101610008AE8C80ED11CF601808140E0823018F4BF
:10162000422F813049F15D01F8EFAF22E8ADF9AD0D
:1016300028813981D90150968C918A9D90018B9D8A
:10164000300D1124620F731FDF01A60FB71F0111A8
:101650001AC0EA0EFB1E8C91842B85278D93AE1544
:10166000BF05C9F7DF91CF910F91FF90EF90DF9009
:10167000CF90BF90AF90089550E0D5CF440F550F55
:10168000E114F10479F33C91342B35273C939F5FAF
:101690009770E1E0EE1AF1089111F0CF2CAD3DAD5D
:1016A000A20FB31FF6018081823028F4813009F047
:1016B00051E041E0E5CF51E0E3CF80E0089590E0D4
:1016C00080E00895FC0180915806882311F13FB70E
:1016D000F89482E08093E9002091F200822F90E05C
:1016E0001816190614F481E090E0882339F0289840
:1016F00044E6409357064091F1004083222339F09D
:101700002091F200211103C02BE62093E8003FBF97
:1017100008958FEF9FEF08959B01DC011896ED91DE
:10172000FC9141E067E109942FB7F89483E080933E
:10173000E9009091E800892F807295FF04C0909194
:10174000F20080E4891B2FBF089580914F0681111C
:101750000DC082E080934B0684E080934C0610928B
:101760004E0610924D0681E080934F068BE496E082
:10177000089581508F3008F047C0E82FF0E0ED5316
:10178000F44F0C94182EE00BE40BD20BD80BDC0BAF
:10179000040C040C040CE70BED0BF10BF50BFB0B2D
:1017A000040CFF0B809180008F7780938000089558
:1017B000809180008F7DF9CF80918000877FF5CF69
:1017C00084B58F7784BD089584B58F7DFBCF8091DC
:1017D00090008F77809390000895809190008F7D86
:1017E000F9CF80919000877FF5CF8091C0008F77EF
:1017F0008093C00008958091C0008F7DF9CF8091C3
:10180000C200877F8093C2000895CF93DF93282F73
:1018100030E0F901E554FD4F8491F901E456FD4FA4
:10182000D491F901E358FD4FC491CC23A1F081116B
:101830000E94B90BEC2FF0E0EE0FFF1FE159FD4FB6
:10184000A591B491EC91ED2381E090E009F480E062
:10185000DF91CF91089580E090E0FACF1F93CF936E
:10186000DF93282F30E0F901E554FD4F8491F90111
:10187000E456FD4FD491F901E358FD4FC491CC23B8
:10188000A9F0162F81110E94B90BEC2FF0E0EE0F9A
:10189000FF1FEF59FD4FA591B4918FB7F894EC91CC
:1018A000111108C0D095DE23DC938FBFDF91CF915B
:1018B0001F910895DE2BF8CFCF93DF9390E0FC01CA
:1018C000E456FD4F249183589D4FFC018491882359
:1018D000D1F090E0880F991FFC01ED5AFD4FA591C2
:1018E000B491FC01EF59FD4FC591D491623071F470
:1018F0009FB7F8943C91822F809583238C93E88145
:101900002E2B28839FBFDF91CF9108958FB7F89436
:10191000EC912E2B2C938FBFF6CF3FB7F89480918C
:10192000470690914806A0914906B0914A0626B50F
:10193000A89B05C02F3F19F00196A11DB11D3FBF07
:10194000BA2FA92F982F8827BC01CD01620F711DD6
:10195000811D911D42E0660F771F881F991F4A95D0
:10196000D1F708958F929F92AF92BF92CF92DF925C
:10197000EF92FF926B017C010E948D0C4B015C0188
:10198000C114D104E104F104B9F00E948D0C68196E
:1019900079098A099B09683E73408105910580F3A6
:1019A00021E0C21AD108E108F10888EE880E83E030
:1019B000981EA11CB11CE4CFFF90EF90DF90CF9058
:1019C000BF90AF909F908F9008952FB7F89460913B
:1019D00043067091440680914506909146062FBFBC
:1019E00008950F931F93CF9387E00E94050CC1E0E9
:1019F000892B09F4C0E00C2F10E08091740380174C
:101A0000110679F089E00E94050C0817190779F092
:101A10008091D3039091D40301969093D403809343
:101A2000D303C0937403CF911F910F9108958091B8
:101A3000D3039091D4030197F0CF80E991E008950A
:101A40000895089540914303509144032091410328
:101A50003091420342175307B4F49091E800957017
:101A6000E1F39091E80092FD19C08093F10080911C
:101A700043039091440301968F739927892B19F49E
:101A80008EEF8093E8008091430390914403019688
:101A9000909344038093430381E0089580E0089588
:101AA000DF92EF92FF920F931F93CF93DF93D82E85
:101AB0008A01EB017B01E40EF51ECE15DF0559F01E
:101AC000D7FE12C0FE0184910E94220D2196811141
:101AD000F4CF0FEF1FEFC801DF91CF911F910F914E
:101AE000FF90EF90DF9008958881EECF0F931F93C2
:101AF000CF93DF931F92CDB7DEB782E0898342E4B4
:101B000050E06CEA70E080E80E94500D0E94A50B46
:101B1000DC0112960D911C910115110589F0D80177
:101B2000ED91FC910280F381E02DBE016F5F7F4F4C
:101B3000C801099597FD04C0F80100851185ECCF17
:101B400089810F90DF91CF911F910F91089561507E
:101B500030F02091F100FC0120830196F8CF289805
:101B600084E68093570608958F929F92AF92BF921A
:101B7000CF92DF92EF92FF920F931F93CF93DF9359
:101B80006C017B018A0180910B01882309F45CC000
:101B900080915806882309F457C08091470380FF3D
:101BA00005C08091E00082608093E000E801B12CE4
:101BB0008AEFA82E93E0892E2AE3922E209711F423
:101BC000BB20D9F10E94940B81110AC0AA94AA20CB
:101BD000D9F161E070E080E090E00E94B20CEECFBD
:101BE0008C171D0611F00CF08C2F9FB7F894809283
:101BF000E9002091E80025FD02C09FBFDFCF282F1C
:101C000030E0C21BD30BF701815020F0419140938B
:101C1000F100FACFE20EF31EBB2021F09092E80013
:101C2000B12CEBCF8091E80085FDE7CF9092E800E2
:101C3000BB24B394209709F3F3CF5D9884E6809397
:101C40004603101611063CF081E090E0F601938304
:101C5000828310E000E0C801DF91CF911F910F91C6
:101C6000FF90EF90DF90CF90BF90AF909F908F90BC
:101C70000895CF93DF931F92CDB7DEB76983DC0160
:101C8000ED91FC910280F381E02D41E050E0BE0136
:101C90006F5F7F4F09950F90DF91CF9108950F935C
:101CA0001F93CF93DF938C01D0E0C0E0F801EC0FDD
:101CB000FD1F6491662341F08BE596E00E94390E8A
:101CC000892B11F02196F2CFCE01DF91CF911F9198
:101CD0000F91089583E08093E9008091F2008823BA
:101CE00019F08AE38093E80008950E94940B90E035
:101CF0000895CF93DF931F92CDB7DEB7FC018485A3
:101D0000958597FD08C02FEF3FEF358724870F900B
:101D1000DF91CF910895CE0101960E94620B019749
:101D200019F4898190E0F3CF8FEF9FEFF0CF0F93FD
:101D30001F93CF93DF931F92CDB7DEB78C01FC01C9
:101D40008485958597FF0BC0CE0101960E94620B9A
:101D5000019771F4898190E0F80195878487F801F3
:101D6000848595850F90DF91CF911F910F910895F4
:101D70008FEF9FEFF1CFFC018485958597FD0BC018
:101D80009FB7F89482E08093E9008091F2009FBFB2
:101D900090E0019608959FB7F89482E08093E9005F
:101DA0008091F2009FBF90E008952091F502260FE8
:101DB0003327331F21323105ECF420911B03FC0142
:101DC00090E080E0243069F082E00895A091F5026F
:101DD0002191AC014D525D4FA40FB52FB11D2C9335
:101DE0000196861798F38091F502680F6093F502CB
:101DF00080E0089581E0089510921B0381E08093B4
:101E00001D0310921C0361E082E00E942E0C61E031
:101E100083E00E942E0CE9EBF0E080818E7F8083CE
:101E200080818D7F808388E48093B80085E48093EF
:101E3000BC000895CF93DF9391E09093D202882362
:101E4000B9F0C091B800D091BA008091BC008A7BF3
:101E50008093BC0060E082E00E942E0C60E083E092
:101E60000E942E0C0E94FC0ED093BA00C093B800C2
:101E7000DF91CF910895089508950895E091CA02E1
:101E80008091C902E81730F4F0E0E755FD4F8081FA
:101E900090E008958FEF9FEF08959091CA0280918E
:101EA000C9022FEF3FEF981748F4E92FF0E0E7550C
:101EB000FD4F208130E09F5F9093CA02C9010895D1
:101EC0008091C9029091CA02891B990B0895CF9203
:101ED000DF92EF92FF920F931F93CF93DF937C01DA
:101EE000CB018A012091A802222389F0EB016B012A
:101EF000C40ED51ECC15DD0569F06991D701ED91B1
:101F0000FC910190F081E02DC7010995F3CF642F7A
:101F10000E94D50EC801DF91CF911F910F91FF90C4
:101F2000EF90DF90CF900895CF93DF931F92CDB7BE
:101F3000DEB769832091A8022223F9F02091CB0219
:101F4000203258F021E030E0FC013383228390E01E
:101F500080E00F90DF91CF9108958091CC02E82F1F
:101F6000F0E0E857FD4F998190838F5F8093CC021A
:101F70008093CB0281E090E0ECCF61E0CE0101964E
:101F80000E94D50EF7CFDC011A96ED91FC9130E05E
:101F900020E00994DC011696ED91FC9130E020E000
:101FA00040E069E10994DC011696ED91FC9130E086
:101FB00020E040E068E109949A01DC011696ED9179
:101FC000FC91462F67E10994EF92FF920F931F93C4
:101FD000CF93DF931F92CDB7DEB77C018B01D80181
:101FE0006C91673129F150F46531A0F40F90DF91C5
:101FF000CF911F910F91FF90EF9008956A3118F1E2
:102000006E3FA1F7F8014181498369E2C7010E944F
:10201000C30F0BC0F80141814983D7011696ED919A
:10202000FC9130E020E0C70109950E5F1F4FD7CF2C
:10203000F80181818983AE014F5F5F4F61E0C70185
:102040000E94DC0FF2CF0F5F1F4FD7011696ED9164
:10205000FC9130E020E040E0C7010995C0CF462F59
:10206000DC011696ED91FC9130E020E066E10994E8
:10207000462FDC011696ED91FC9130E020E065E101
:102080000994EF92FF920F931F93CF93DF93EC018C
:10209000042F79016D3009F446C050F46B30C9F15A
:1020A000693009F49FC06A3009F465C080E046C019
:1020B0006E3009F452C06F3099F70E94D30FF701C8
:1020C0001381110F110F110F6C89160F60E4CE01EF
:1020D0000E943810612F62956F706061CE010E947E
:1020E0003810612F6F70CE010E942F10F7016481AC
:1020F000606BCE010E942F10F701408151816281F7
:10210000660F660F660FCE010E94DC0F0150A1F72B
:102110002EC068E371E0442311F063E371E0CE0167
:102120000E94E40F0AC0411110C06CE271E00E94ED
:10213000E40FE881F98182898C8B81E0DF91CF9176
:102140001F910F91FF90EF90089565E271E00E945A
:10215000E40FE881F9818389EFCF0E94D30F61E812
:10216000CE010E943810602FCE010E942F10CE01A8
:102170000E94CA0FE2CFEA85FB8530E020E040E014
:1021800068E2CE010995EE81FF8130E020E040E079
:1021900064E1CE01099541E06BE4CE010E94C30FDA
:1021A000E881F981448169E2CE010E94C30F40E0D9
:1021B0006BE4CE010E94C30FE881F981448169E29A
:1021C000CE010E94C30F41E06BE4CE010E94C30F19
:1021D000E881F981458169E2CE010E94C30F6DE378
:1021E00071E09DCF82E791E0998388831C8AA5CF17
:1021F000DC011896ED91FC9130E020E040E069E1CF
:102200000994DC011896ED91FC9130E020E040E06B
:1022100068E10994CF93DF931F92CDB7DEB769834E
:10222000BE016F5F7F4F0E948C0B0F90DF91CF91AB
:102230000895EF92FF921F93CF93DF93EC01162F37
:102240007A010E94011160E4CE010E940A11E88522
:10225000F9859701412F67E1CE010995CE01DF9104
:10226000CF911F91FF90EF900C94F810EF92FF9296
:102270001F93CF93DF93EC01142F7901663181F125
:1022800038F4643109F44BC0653179F080E022C044
:102290006831C9F150F16931C9F78091870288230B
:1022A00091F1CE010E94F8102EC080918702882300
:1022B00019F0CE010E94F810CE010E94011160E0D9
:1022C000CE010E940A11612FCE010E940A1181E005
:1022D00080938702DF91CF911F91FF90EF90089537
:1022E000642F0E940A1181E0F5CF80918702882334
:1022F00019F0CE010E94F810A701193138F4612FAE
:10230000CE010E94191110928702EDCF68E1CE0133
:102310000E941911185188E1E80EF11CEDCF8E8949
:102320008F3F11F488E78E8BE885F9859701412F5F
:1023300064E1CE01DF91CF911F91FF90EF9009945E
:10234000FC016623D9F16A30C9F1808D811125C065
:102350006C3F48F085E0808F617070E0738B628B1A
:102360002EEF3FEF29C0683F20F084E0808F63703C
:10237000F4CF603F20F083E0808F6770EECF603E47
:1023800020F082E0808F6F70E8CF262F30E0603C35
:1023900098F081E0808F6F71E0CF8150808F22892B
:1023A000338996E0220F331F9A95E1F76F73262B3E
:1023B000338B228B8111D4CFC90108952FEF3FEFCA
:1023C000FBCF0F93FC01E05CFF4F0190F081E02D0B
:1023D0004E1B5F0BDC01D496ED91FC9109950F919A
:1023E0000895CF93DF93FC01A081B18182AD90E08D
:1023F0009C0143E0220F331F4A95E1F737AF26AF28
:1024000050962C91509748E0249F9001112435AFAD
:1024100024AF23AD30E0B90153E0660F771F5A9522
:10242000E1F7EF01C05CDF4F7983688351964C91EF
:102430005197E901C80FD91F50E04C175D0718F4F8
:10244000CA01821B930BEF01CE5BDF4F7983688358
:10245000229623E0880F991F2A95E1F7860F971F90
:1024600099838883229654968D919C915597998350
:102470008883E85BFF4F56968D919C919183808372
:10248000DF91CF9108950F931F93FC01E25BFF4F03
:102490000190F081E02DDC01A05BBF4F0D90BC915D
:1024A000A02D4A175B0740F4E017F10748F0041726
:1024B000150730F080E019C0E017F107C0F3FACF3C
:1024C000FC01E65BFF4F40815181845B9F4FFC0123
:1024D000808191816817790758F481E0421753078A
:1024E00020F081E02617370728F71F910F910895F4
:1024F00042175307B0F3DECF2F923F924F925F9275
:102500006F927F928F929F92AF92BF92CF92DF9203
:10251000EF92FF920F931F93CF93DF93CDB7DEB768
:102520002A970FB6F894DEBF0FBECDBF9A87898772
:10253000865B9F4F9A838983FC0111821082E98513
:10254000FA85EA5BFF4F4080518029853A85245BFC
:102550003F4F3C832B83F90151824082E985FA8504
:10256000EE5BFF4F2080318029853A85225B3F4F0B
:102570003E832D83F90131822082E985FA85EC5B67
:10258000FF4F6080718029853A85205B3F4F3887F7
:102590002F83F90171826082E985FA85E85AFF4F3D
:1025A000E080F180E985FA85EC5AFF4FA080B18088
:1025B000E985FA85EA5AFF4FC080D180E985FA851E
:1025C000EE5AFF4F8080918087019501A601B401EA
:1025D00089859A850E94431229853A852C573F4F59
:1025E0003A87298781111BC0F90110822A960FB6FC
:1025F000F894DEBF0FBECDBFDF91CF911F910F9139
:10260000FF90EF90DF90CF90BF90AF909F908F9012
:102610007F906F905F904F903F902F90089581E052
:10262000E985FA8580838114910421F0E981FA819A
:1026300091828082A414B50420F4EB81FC81B182E4
:10264000A0822C143D0420F4ED81FE81D182C08251
:10265000E614F70458F6EF81F885F182E082C6CFE0
:102660000F93CF93DF93E02FDC01AC57BF4FFC916A
:10267000FF2309F460C02115310509F45CC0223044
:10268000310538F0023009F04AC06F5F7F4F621B9E
:10269000730B0E2F0170E0FD52C0FC01E25BFF4F97
:1026A0000190F081E02D4E175F0708F444C0FC0153
:1026B000E05BFF4F0190F081E02D4E175F07D8F5EA
:1026C000FC01E45BFF4F0190F081E02DDC01A65B93
:1026D000BF4F0D90BC91A02D260F371F261737072F
:1026E00038F56E177F0718F59F0121503109A217A1
:1026F000B30708F56A177B0708F4BD012E173F07DB
:1027000008F4F901E61BF70BEC01AEA9BFA914967A
:102710000D90BC91A02D9F01FD0109950CC00330C7
:1027200009F0B7CF4F5F5F4F421B530BB2CFBD01D4
:102730006E177F07E0F2DF91CF910F910895FC01B2
:10274000E65BFF4F0190F081E02D6E177F0798F355
:10275000FC01E45BFF4F0190F081E02D6E177F07D5
:1027600050F7FC01E05BFF4F0190F081E02DDC01B0
:10277000A25BBF4F0D90BC91A02D240F351F2417D5
:102780003507A8F44E175F0788F49F0121503109DF
:10279000A217B30780F64A175B0708F4AD012E179E
:1027A0003F0708F4F901E41BF50BAECFAD014E175E
:1027B0005F0708F6EDCF213069F038F0223079F06C
:1027C000840F911D47FD9A950895860F911D67FD11
:1027D0009A950895841B910947FD93950895861B4A
:1027E000910967FD93950895213069F038F0223002
:1027F00079F0861B910967FD93950895840F911DCB
:1028000047FD9A950895860F911D67FD9A95089545
:10281000841B910947FD939508953F924F925F92D3
:102820006F927F928F929F92AF92BF92CF92DF92E0
:10283000EF92FF920F931F93CF93DF937C01162F9C
:10284000442EEC01C25ADF4F5E806F806C018AE833
:10285000C80ED11C78847518312E711608F4372CE7
:102860008C809D800E85202F462D652D8A819B8131
:102870000E94DB135C01202F462D652DC4010E94B0
:10288000F413AC01442079F08C85F6018083232D6C
:1028900030E0B501C7010E943013171548F0171931
:1028A0006394512CD7CF8B858111F7CF8D85EDCFD8
:1028B000150D1E836F82DF91CF911F910F91FF90B5
:1028C000EF90DF90CF90BF90AF909F908F907F90D0
:1028D0006F905F904F903F900895DC011A964C9155
:1028E0001A97ED91FC911197249130E0042E02C0CB
:1028F000359527950A94E2F7842F860F883068F083
:1029000031961196FC93EE93E49198E0941B01C0EC
:10291000EE0F9A95EAF72E2B88501A968C938FEF2C
:102920009FEF01C0880F6A95EAF78095822308958A
:102930000F931F93CF93DF938C01EC01C25ADF4FAB
:10294000798368831A86FC01EF58FF4F6081CE01BE
:102950000E946D148887F801EE58FF4F6081CE0108
:102960000E946D148987F801E657FF4F90819C877C
:1029700081E0911180E08D87DF91CF911F910F91C0
:102980000895CF93C62F0E946D14C15021E030E00E
:1029900001C0220FCA95EAF7821BCF910895FC016E
:1029A000E60FF11D849190E0982F88273196E491ED
:1029B0008E0F911D0895EF92FF920F931F93CF9367
:1029C000DF93FC01E65AFF4F20813181295E3F4FA2
:1029D0006F3F710509F048F561367105D8F08058F0
:1029E0009F4FFC0180819181280F391FC9010196F9
:1029F000FC014491442309F447C0F901449146176E
:102A0000170671F40196DF91CF911F910F91FF90FE
:102A1000EF9008956134710548F382589F4FE1CFDC
:102A2000FC018491280F311DE1CF8B01FC01EE5791
:102A3000FF4FC081D181C20FD31F7E0160E0C7016B
:102A40000E94CF14C80FD91F62E0C7010E94CF14A3
:102A5000F4E0EF0EF11C8017910780F3FE018491E2
:102A600090E0982F88273196E4918E2B009761F0A3
:102A70000817190719F4CE010396C5CFFE01329647
:102A8000E491CE0FD11DEACF90E080E0BCCFCF9291
:102A9000DF92FF920F931F93CF93DF931092C4079F
:102AA000109276076C0180ECF82E10E000E0D0E088
:102AB000C0E0F60161916F01E0916007F09161075C
:102AC0008EE597E009958F3F980789F18E3F2FEFAC
:102AD000920779F3BC018EE597E00E94DB14009722
:102AE00021F1BC018EE597E00E9498146091D10716
:102AF0008CEB97E00E94C1148093E6076091D207A7
:102B00008CEB97E00E94C1146091D3078CEB97E0A7
:102B10000E94C114082F880F110B80ECF81202C01C
:102B2000F090E607C00FD11FC4CF80E0F3CF209113
:102B3000C407222399F08091E607022E000C330B84
:102B4000280F311D87FD3A95C20FD31FC01BD10B33
:102B50001F1424F4CF0DD11DF7FCDA95CE01DF91BF
:102B6000CF911F910F91FF90DF90CF9008958F929A
:102B70009F92AF92BF92CF92DF92EF92FF920F930C
:102B80001F93CF93DF93EC017B018A016901FC0164
:102B9000E459FF4F8081813009F46FC008F462C0AE
:102BA000823009F475C0833009F47DC0FE01E05A1B
:102BB000FF4FF182E082329611830083B601CE018D
:102BC0000E94DB14009709F4FFC07E012EE5E20E9F
:102BD000F11CBC01CE010E949814FE01E959FF4F7F
:102BE000B0803C966081C7010E94C114882EFE010E
:102BF000EC58FF4F6081C7010E94C114082FFE01ED
:102C0000EB58FF4F6081C7010E94C114A82EF70145
:102C1000908419140CF090C016850B0D0195212F8E
:102C2000402F682D828193810E94DB136C01F70194
:102C300093838283212F402F682D848195810E9468
:102C4000F413AC01F70195838483113009F484C037
:102C5000A8F1123009F491C0133009F4A4C08C011A
:102C6000960136C0FE01E45AFF4F0190F081E02D3D
:102C7000CE010995080F191F99CFFE01E45AFF4FA5
:102C80000190F081E02DCE010995E81AF90A8ECF66
:102C9000FE01E45AFF4F0190F081E02DCE0109952D
:102CA000081B190B83CFFE01E45AFF4F0190F081FE
:102CB000E02DCE010995E80EF91E78CF9601290D79
:102CC000311D97FC3A958C010B0D111DB7FC1A951F
:102CD000B601CE010E944312882371F1F7011682DA
:102CE00017828E0101591F4F6E01F0E7CF0ED11CE4
:102CF000F8016081C7010E946D14882EF601608181
:102D0000C7010E946D14982E40E0682DCE010E94EC
:102D10000D1441E0692DCE010E940D1461E0C70140
:102D20000E946D148111F0CFF70187818B1504F398
:102D3000C657DF4F848588838A2DAA0C990BDF91B3
:102D4000CF911F910F91FF90EF90DF90CF90BF90A8
:102D5000AF909F908F90089581E090E08B1991093A
:102D6000B7FC939596012F5F3F4F8A01090D111D06
:102D700097FC1A95C80ED91EABCF81E090E0BC013C
:102D80006919710997FC739596012F5F3F4F8B1955
:102D90009109B7FC93958A010F5F1F4F480F591F88
:102DA000C60ED71E95CF96012B0D311DB7FC3A9557
:102DB00081E090E08919910997FC93958A010F5F52
:102DC0001F4F480F591F84CF90E080E0B8CFCF92BB
:102DD000DF92EF92FF920F931F93CF93DF93EC015B
:102DE0008B01109276077A01D12CC12CF7016191E9
:102DF0007F01E0916007F09161078EE597E009950A
:102E00008F3F980719F18E3F2FEF920779F39C01BE
:102E1000A801BE018EE597E00E94B7152091CA0770
:102E2000213059F038F0223059F0233061F0C80ECB
:102E3000D91EDCCFC80FD91FFACF080F191FF7CF43
:102E4000C81BD90BF4CF081B190BF1CFC601DF91BA
:102E5000CF911F910F91FF90EF90DF90CF90089549
:102E6000CF93DF93EC016BAFEEA9FFA90190F08146
:102E7000E02D0995EEA9FFA90280F381E02DCE0196
:102E8000DF91CF910994AF92BF92CF92DF92EF92F0
:102E9000FF920F931F93CF93DF9300D000D01F9228
:102EA000CDB7DEB78C01DC01DA96AC90DA97DB9611
:102EB000EC90DB97ED91FC91B188FE2CD12CC12CCC
:102EC000D801ED91FC9111978089D8962D913C9174
:102ED0001C82FD828B83B8E08B9FC00111248C9DE6
:102EE000A0018D9D500D9C9D500D1124240F351F68
:102EF0003A832983D8011496ED91FC919E012F5FAE
:102F00003F4F41E06FE0C8010995F3948F2D8E1972
:102F10008A1528F4BFEFCB1ADB0AFB1488F20F9056
:102F20000F900F900F900F90DF91CF911F910F9105
:102F3000FF90EF90DF90CF90BF90AF900895CF9229
:102F4000DF92EF92FF920F931F93CF93DF93EC01E9
:102F5000962F683109F44BC0B901993130F494319E
:102F6000C9F0973189F080E006C0993109F461C059
:102F70009032C9F781E0DF91CF911F910F91FF90BF
:102F8000EF90DF90CF90089550E08BEA96E00E949A
:102F9000670FF0CF8C859D85AE85BF85892B8A2BE9
:102FA0008B2B71F4E881F981A585B0E020EA36E841
:102FB00041E050E00E947D2D6C877D878E879F8742
:102FC0001092CA021092C9021092CC021092CB0247
:102FD0000E94FC0E8BE39FE09093F4028093F30237
:102FE0008CE39FE09093F8028093F702C3CF2C8587
:102FF0003D854E855F8560E074E284EF90E00E943D
:10300000BF2D2051310941095109569547953795F2
:1030100027952093B8008E8990E09595879591E04B
:103020009093A802809386021092CC021092CB0259
:10303000A1CFD091CB02D13208F093C0C0918602CB
:103040000E948D0C6B017C0180911B03811164C077
:1030500082E080931B0381E080931D038FEF8093B8
:103060001A0310923F03D0933E03A8E8B2E0EEE1CA
:10307000F3E080E0D8137CC01092400380914003BD
:10308000CC0FC82BC093400380911C03813009F002
:1030900073C010921C030E948D0C6B017C01809107
:1030A00040038093BB008091CE029091CF02A0910B
:1030B000D002B091D102892B8A2B8B2B99F00E94E0
:1030C0008D0C0091CE021091CF022091D002309150
:1030D000D1026C197D098E099F0906171707280769
:1030E0003907D8F18091BC0083FDD9CF85EC80935E
:1030F000BC000E948D0C6B017C0180911B0382300F
:10310000E9F180911A038F3F61F180911A038032B7
:1031100041F180911A0325C08091CE029091CF0297
:10312000A091D002B091D102892B8A2B8B2B09F46C
:103130008BCF0E948D0C0091CE021091CF02209176
:10314000D0023091D1026C197D098E099F090617B2
:1031500017072807390708F077CF8091CD020E9422
:103160001A0F1092CC021092CB021092A80202CF3A
:103170009D9191938F5F7ECF85EEB9CF8091CE02E6
:103180009091CF02A091D002B091D102892B8A2BCD
:103190008B2B09F4B2CF0E948D0C0091CE021091BE
:1031A000CF022091D0023091D1026C197D098E0995
:1031B0009F09061717072807390708F09ECFCDCFBC
:1031C0000F931F93CF93DF938C01C62F642FCC32C4
:1031D000B0F4CA32D0F5C83239F1C932E1F180E039
:1031E000C034A0F1CF73F801EC0FF11D868D8F3F35
:1031F00061F1C03108F045C00E942E0C26C0CD32CE
:1032000081F168F384EB8C0F823048F7CF73C00FE5
:10321000D12FD11D8E8D411132C00E942E0C61E044
:103220008E8D0E945C0C11C0025E1F4FD0E0F80131
:1032300081918F018F3F31F061E0D03108F062E081
:103240000E945C0CDF5FD63191F781E0DF91CF9176
:103250001F910F91089570E090E080E00E94B20C01
:10326000F4CF85E090E0433010F082E090E0880FEA
:10327000991F880F991F05970197F1F7E6CF62E034
:10328000D0CF0E94050C21E0892B09F420E0F80141
:10329000218FDBCFEF92FF920F931F93CF93DF939A
:1032A00000D01F92CDB7DEB719821A821B82662327
:1032B00029F1FC01389610E000E0E62EF12C219176
:1032C0002223B9F042814423A1F030E02F5F3F4F29
:1032D000D7010E94E12DA42FB0E011969B01AC0113
:1032E0000E947D2DA1E0B0E0AC0FBD1FA00FB11F6B
:1032F0008C930F5F1F4F0330110509F769817A81A5
:103300008B810F900F900F90DF91CF911F910F91B4
:10331000FF90EF90089581E090E008950F931F9340
:10332000CF93DF9320915B022F5F322F3770309362
:103330005B0220FF2BC020E831FD2064347009F0CF
:103340002062205FFC01EC01239600E011E067851C
:10335000662329F070E0C8010E94042E6F5F618728
:10336000822F869F080E8827811D1124811110C08D
:103370001682662311F0615061873196EC17FD07C4
:1033800031F7DF91CF911F910F91089520E0D4CFB5
:1033900081508683EECF4F925F927F928F929F9261
:1033A000AF92BF92CF92DF92EF92FF920F931F9353
:1033B000CF93DF932C01EB010E948D0CF201278D3E
:1033C00030A1621B730B68317140B0F3F8948A81AD
:1033D0009B81181619060CF0CDC1E881F9816BB1FB
:1033E000862E689487F83BB13F773BB9DA848F81AA
:1033F0002D2D281B822F2F834C85042E000C550B5E
:10340000AA81BB817889FF84E9887F5FF394E39484
:103410009E819884B984AB841181C12C6C2D0C2DB4
:103420002C2D2181112788942111280F08F42FEFCA
:103430008195889470FD120F1795889471FD120F75
:103440001795889472FD120F1795889473FD120FCB
:103450001795889474FD120F1795889475FD120FB7
:103460001795889476FD120F1795889477FD120FA3
:1034700017958894622F7111612F8D0D162F002CD6
:103480008BB800C017FF3BB920816627889400C025
:1034900000C0002C3BB92111290F00C0002C8BB8B3
:1034A00000C016FF3BB908F42FEF9195889400C037
:1034B00000C0002C3BB9F0FC620F00C0002C8BB8A0
:1034C00000C015FF3BB967958894F1FC620F00C0FE
:1034D00000C0002C3BB96795889400C0002C8BB8C5
:1034E00000C014FF3BB9F2FC620F6795889400C0DE
:1034F00000C0002C3BB9F3FC620F00C0002C8BB85D
:1035000000C013FF3BB967958894F4FC620F00C0BC
:1035100000C0002C3BB96795889400C0002C8BB884
:1035200000C012FF3BB9F5FC620F6795889400C09C
:1035300000C0002C3BB9F6FC620F00C0002C8BB819
:1035400000C011FF3BB967958894F7FC620F00C07B
:1035500000C0002C3BB96795889400C0002C8BB844
:1035600000C010FF3BB9122FF110162F9B0D00C0A9
:1035700000C0002C3BB900C000C0002C8BB800C0BC
:1035800017FF3BB922816627889400C000C0002C39
:103590003BB92111290D00C0002C8BB800C016FFCB
:1035A0003BB908F42FEFE40FF51F00C000C0002C5A
:1035B0003BB9E0FC620F00C0002C8BB800C015FFC7
:1035C0003BB967958894E1FC620F00C000C0002CF5
:1035D0003BB96795889400C0002C8BB800C014FFDD
:1035E0003BB9E2FC620F6795889400C000C0002CD4
:1035F0003BB9E3FC620F00C0002C8BB800C013FF86
:103600003BB967958894E4FC620F00C000C0002CB1
:103610003BB96795889400C0002C8BB800C012FF9E
:103620003BB9E5FC620F6795889400C000C0002C90
:103630003BB9E6FC620F00C0002C8BB800C011FF44
:103640003BB967958894E7FC620F00C000C0002C6E
:103650003BB96795889400C0002C8BB800C010FF60
:103660003BB9122FE110162F919400C000C0002C1E
:103670003BB99A0C00C000C08BB800C017FF3BB923
:1036800021816627889400C000C0002C3BB921111D
:10369000280F00C0002C8BB800C016FF3BB908F4FF
:1036A0002FEF8195889400C000C0002C3BB970FDBD
:1036B000620F00C0002C8BB800C015FF3BB96795A6
:1036C000889471FD620F00C000C0002C3BB9679563
:1036D000889400C0002C8BB800C014FF3BB972FD69
:1036E000620F6795889400C000C0002C3BB973FD41
:1036F000620F00C0002C8BB800C013FF3BB9679568
:10370000889474FD620F00C000C0002C3BB967951F
:10371000889400C0002C8BB800C012FF3BB975FD27
:10372000620F6795889400C000C0002C3BB976FDFD
:10373000620F00C0002C8BB800C011FF3BB9679529
:10374000889477FD620F00C000C0002C3BB96795DC
:10375000889400C0002C8BB800C010FF3BB9122F1A
:103760007111162F8D0D00C000C0002C3BB91197B0
:1037700009F086CEEA81FB812EE130E0DF010E9474
:103780001E2E30E020E0A901AAE9EA9F0E0E411D9D
:10379000FA9F400D511D11244F0F511DDC01CB012B
:1037A000840F951FA11DB11D893E43E09407A1051B
:1037B000B10508F434C0885E9340A109B10942E024
:1037C000B695A795979587954A95D1F747E0849F39
:1037D000080E211D949F200D311D1124290F311D2C
:1037E00060915A0270E0860F971F820F931F4091DD
:1037F0004306509144066091450670914606292F74
:103800003327420F531F611D711D40934306509390
:103810004406609345067093460680935A02789456
:103820000E948D0CF20170A3678FDF91CF911F91E1
:103830000F91FF90EF90DF90CF90BF90AF909F904F
:103840008F907F905F904F900895579A08956F9250
:103850007F928F92CF92DF92EF92FF920F931F93FE
:10386000CF93DF93CDB7DEB762970FB6F894DEBF84
:103870000FBECDBF8C016B017A01622F0E944A19E5
:103880003B01882ED8011E962C91C701F7FE04C07B
:10389000882799278E199F09DA82C9829C838B8396
:1038A0009E838D83688A798A8A8A213049F5CE0180
:1038B00001960E948E1983E08D871F861E86F7FE73
:1038C00002C08DEF8D87D801ED91FC910088F189C0
:1038D000E02DBE016F5F7F4FC801099562960FB65C
:1038E000F894DEBF0FBECDBFDF91CF911F910F9136
:1038F000FF90EF90DF90CF908F907F906F90089522
:103900001C861B861A86198618861F82D4CFCF92F2
:10391000DF92EF92FF920F931F93CF93DF93CDB778
:10392000DEB762970FB6F894DEBF0FBECDBF8C0135
:103930006B017A01622F0E944A199B01482FD8011E
:103940001E968C91DA82C982FC82EB82FE82ED8225
:10395000288B398B4A8B813009F5CE0101960E9464
:103960008E191D861F861E86D801ED91FC91008858
:10397000F189E02DBE016F5F7F4FC8010995629606
:103980000FB6F894DEBF0FBECDBFDF91CF911F9170
:103990000F91FF90EF90DF90CF9008951C861B86CB
:1039A0001A86198618861F82DCCF982F80ED890F22
:1039B0008A3070F08FEB890F863018F489EC890F0C
:1039C00008958FE9890F863010F489EAF8CF80E0F6
:1039D00008950F931F93CF93DF938C01FC01808197
:1039E0000E94D51CC82FF80181810E94D51CF0E1EE
:1039F000CF9FE00111248C2BDF91CF911F910F916C
:103A00000895CF92DF92EF92FF920F931F93CF937F
:103A1000DF936C01EB017B01E40EF51E10E000E08A
:103A2000CE15DF0561F06991D601ED91FC91019011
:103A3000F081E02DC6010995080F191FF1CFC801CB
:103A4000DF91CF911F910F91FF90EF90DF90CF907A
:103A50000895CF92DF92EF92FF920F931F93CF932F
:103A6000DF93EC016C0124E0C20ED11CFC01E05795
:103A7000FF4F0190F081E02DC60109958E3FEFEFD9
:103A80009E07D8F48E010C561F4FF80140815181DA
:103A90007E01F2E9EF0EF11CF701608171819C015A
:103AA000C6010E94B715C059DF4F28812130C1F0EF
:103AB00078F02230B9F02330E9F081E090E0DF9136
:103AC000CF911F910F91FF90EF90DF90CF900895CD
:103AD000F70120813181820F931F91838083EDCF85
:103AE000F801F7CFF70120813181281B390B318391
:103AF0002083E3CFF801F7CF90E080E00895FC0148
:103B000084819581089590E080E00895FB01019003
:103B10000020E9F73197AF01461B570B0C94B40D09
:103B2000CF93DF930E944F0EEC016FE072E08BE5C4
:103B300096E00E94861D8C0F9D1FDF91CF91089506
:103B40008F929F92AF92BF920F931F93CF93DF9369
:103B5000CDB7DEB7A1970FB6F894DEBF0FBECDBFCD
:103B600019A2423008F44AE08E010F5D1F4F842EE7
:103B7000912CB12CA12CA50194010E94BF2DE62F00
:103B8000B901CA01EA3004F5E05DD801EE938D0178
:103B9000232B242B252B79F790E080E0109729F038
:103BA000BD018BE596E00E94861DA1960FB6F894A4
:103BB000DEBF0FBECDBFDF91CF911F910F91BF90A0
:103BC000AF909F908F900895E95CDFCFCF93DF9304
:103BD000C0915906D0915A062097B1F08A819B81F5
:103BE000009771F02C813D81A901440F551F420FB0
:103BF000531F4115510521F070E060E00E94F02E46
:103C00000E80DF81C02DE8CFDF91CF910895FC01B8
:103C1000A081B18150962C9182AD38E0839FC00184
:103C20001124289FA001299F500D112470E060E00D
:103C300080AD91AD0C94F02E1F93CF93DF93EC01E8
:103C40000E9443171BAD8AAD180FE881F981818965
:103C5000181768F0EC81FD8130E020E040E060E181
:103C6000CE01099580E0DF91CF911F910895FE016B
:103C7000E557FF4F8081882319F0CE010E94071E6F
:103C8000612FCE010E94301781E0EDCFCF93DF93FB
:103C9000EC01FC01E557FF4F8081882319F0CE012C
:103CA0000E94071E60E0CE01DF91CF910C94301787
:103CB0000E94E22E0F931F93CF93DF93EC01888134
:103CC0009981009759F02A813B812617370730F0F8
:103CD00081E0DF91CF911F910F9108958B016F5F6C
:103CE0007F4F0E94252E009759F0998388831B836C
:103CF0000A832C813D81232B59F7FC011082E8CFE8
:103D000080E0E7CFEF92FF920F931F93CF93DF9363
:103D1000EC01198218821B821A821D821C82611595
:103D20007105E1F08B01FB0101900020E9F731976B
:103D30007F01E61AF70AB7010E945A1E28813981CD
:103D4000811113C02115310519F0C9010E94832C7E
:103D5000198218821D821C821B821A82DF91CF91E8
:103D60001F910F91FF90EF900895FD82EC82B801B2
:103D7000C901DF91CF911F910F91FF90EF900C94AB
:103D80000B2FEF92FF920F931F93CF93DF9300D0EF
:103D900000D000D0CDB7DEB7082FCE0101960E942B
:103DA000821EE02EF12C86E0089F80011124085B22
:103DB000184FF801808191810097A1F169817A8182
:103DC0006115710569F1428153812D813E81421750
:103DD000530730F10E940B2F8D819E81F80195834E
:103DE00084831E821D8289819A81009711F00E942E
:103DF000832CF701EE0FFF1FE352FC4F118210825C
:103E000081E08093180126960FB6F894DEBF0FBEAE
:103E1000CDBFDF91CF911F910F91FF90EF9008954B
:103E20000E94832C86E08E9DF0018F9DF00D112461
:103E3000E85BF84F89819A81918380838B819C8193
:103E4000938382838D819E81958384831A821982D4
:103E50001C821B82C6CFCF93DF93EC0170E060E041
:103E60000E945A1E2881398181110FC02115310508
:103E700019F0C9010E94832C198218821D821C82AC
:103E80001B821A82DF91CF9108951D821C8261E10D
:103E900072E0C901DF91CF910C940B2F85ED8093D7
:103EA000BC008091CE029091CF02A091D002B0913F
:103EB000D1020796A11DB11D23E0B695A795979550
:103EC00087952A95D1F72091BC0024FD03C010925C
:103ED0001B0308954091CE025091CF026091D00211
:103EE0007091D102452B462B472B69F30097A10512
:103EF000B10541F02AE22A95F1F700C00197A10926
:103F0000B109E1CF8091CD020C941A0FFC016687B4
:103F10000895FC01868590E008951F920F920FB6D8
:103F20000F9211242F933F938F939F93AF93BF933F
:103F30008091430690914406A0914506B0914606B3
:103F40003091420623E0230F2D3758F50196A11D2D
:103F5000B11D209342068093430690934406A0939C
:103F60004506B09346068091470690914806A09179
:103F70004906B0914A060196A11DB11D80934706DE
:103F800090934806A0934906B0934A06BF91AF911B
:103F90009F918F913F912F910F900FBE0F901F9087
:103FA000189526E8230F0296A11DB11DD2CF1F92AE
:103FB0000F920FB60F9211242F933F934F935F935D
:103FC0006F937F938F939F93AF93BF93EF93FF93E1
:103FD000E0911401F09115010995FF91EF91BF91C6
:103FE000AF919F918F917F916F915F914F913F9191
:103FF0002F910F900FBE0F901F9018951F920F9248
:104000000FB60F9211242F933F934F935F936F93AB
:104010007F938F939F93AF93BF93EF93FF93E09121
:104020001201F09113010995FF91EF91BF91AF91AA
:104030009F918F917F916F915F914F913F912F91C0
:104040000F900FBE0F901F9018951F920F920FB6F2
:104050000F9211242F933F934F935F936F937F930E
:104060008F939F93AF93BF93EF93FF93E0911001D2
:10407000F09111010995FF91EF91BF91AF919F913F
:104080008F917F916F915F914F913F912F910F9001
:104090000FBE0F901F9018951F920F920FB60F92A0
:1040A00011242F933F934F935F936F937F938F933D
:1040B0009F93AF93BF93EF93FF93E0910E01F09125
:1040C0000F010995FF91EF91BF91AF919F918F9152
:1040D0007F916F915F914F913F912F910F900FBE04
:1040E0000F901F9018951F920F920FB60F921124E8
:1040F0002F933F934F935F936F937F938F939F93F0
:10410000AF93BF93EF93FF93E0910C01F0910D01FA
:104110000995FF91EF91BF91AF919F918F917F9101
:104120006F915F914F913F912F910F900FBE0F9024
:104130001F9018951F920F920FB60F9211248F9314
:104140009F938091E1009091E100937F9093E10033
:1041500083FF0FC01092E90091E09093EB00109262
:10416000EC0092E39093ED001092580698E0909343
:10417000F00082FF22C093E09093E9009091F2005A
:10418000992319F09AE39093E800909146039923BC
:1041900041F090914603915090934603911101C0D4
:1041A0005D9A90915706992341F09091570691504E
:1041B00090935706911101C0289A84FF18C08091EE
:1041C000E2008E7E81608093E2008091E1008F7E2C
:1041D0008093E100809147038E7E80618093470346
:1041E0009F918F910F900FBE0F901F90189580FF99
:1041F000F7CF8091E2008E7E80618093E200809113
:10420000E1008E7E8093E100809147038E7E816085
:10421000E5CF1F920F920FB60F921124CF92DF922B
:10422000EF92FF920F931F932F933F934F935F93C0
:104230006F937F938F939F93AF93BF93EF93FF936E
:10424000CF93DF93CDB7DEB76C97DEBFCDBF1092B3
:10425000E9008091E80083FF25C068E0CE01459623
:104260000E94A70D82EF8093E8008D8987FF39C0F7
:104270009091E80090FFFCCF982F907609F034C120
:104280009E894F89588D2F89F88C911131C08038C3
:1042900061F5809148038093F1001092F1008EEF58
:1042A0008093E8006C960FB6F894DEBF0FBECDBFCA
:1042B000DF91CF91FF91EF91BF91AF919F918F913E
:1042C0007F916F915F914F913F912F911F910F912E
:1042D000FF90EF90DF90CF900F900FBE0F901F9048
:1042E00018959EEF9093E800C7CF1092F100D5CFBC
:1042F000913059F48111D3CF4130510581F680912D
:1043000048038D7F80934803CACF933049F48111CD
:10431000C6CF4130510519F6809148038260F2CF33
:10432000953041F48091E80080FFFCCF2068209315
:10433000E300B5CF963009F0A9C00B8D1C8D22E0AB
:104340001092E9001092440310924303F2122EC01F
:1043500010924203109241030E94760D1F8299E051
:104360009983FA8291E09E8390EA98879AEF9987E1
:104370002091430330914403275F3F4F3C832B83BD
:104380008D831092E900109244031092430310931E
:1043900042030093410349E050E0BE016F5F7F4F4D
:1043A00080E00E94500D0E94760D79CF1093420359
:1043B000009341030E94A50BDC0112960D911C9104
:1043C0000115110509F451C1D801ED91FC9104804A
:1043D000F581E02DBE016B5E7F4FC8010995009706
:1043E00009F03EC1F80100851185EACFF3E0FF1224
:1043F0000EC08F89882309F440C0823061F440E800
:1044000060E180E191E00E947B25811148CF81E24B
:104410008093EB0047CF813029F440E86BE084E0E3
:1044200091E0F1CF833099F70E94A50BDC01129641
:10443000ED90FC908E010F5F1F4F6801E114F104B5
:1044400079F0D701ED91FC910680F781E02DB8015C
:10445000C7010995080F111DF701E084F184EECF23
:10446000D8011C92F60101900020E9F73197BF01B5
:104470006C197D0940E0C601C6CF6EEE70E0FB010D
:10448000449150E080E80E94500D09CF973009F424
:10449000BECF983021F481E08093F10000CF9930B5
:1044A00009F0FDCE837009F0B2CFEBE8F1E081E0D6
:1044B00031E096E32191222371F08093E90030935B
:1044C000EB00DF0111972C912093EC009093ED000D
:1044D0008F5F873079F78EE78093EA001092EA00C9
:1044E0008F8980935806DBCE8B8D9C8D1092E900CE
:1044F000109244031092430390934203809341032C
:10450000898D811192C08E899D89913A49F48132B9
:1045100009F07DCF47E050E064E071E080E0B3CF88
:10452000913209F074CF833269F48F89988DB0E0AD
:10453000A0E08093000190930101A0930201B09349
:104540000301ADCE803269F48091E80082FFFCCF98
:1045500067E084E091E00E94A70D8BEF8093E80074
:104560009ECE823209F09BCE8F8980930B01EEEFB5
:10457000FFE7859194918B3F9C4D51F1E0E0F8E08D
:104580008091040190910501A0910601B09107016D
:10459000803B9440A105B105F1F480910B0180FDB1
:1045A0001AC0EE3F8AE0F80789F587E797E791831D
:1045B0008083809160008093450388E19BE00FB683
:1045C000F894A895809360000FBE9093600067CE2A
:1045D000EEEFFAE0D5CF808191818737974709F0D8
:1045E0005ECEA89580916000886180936000809184
:1045F000450380936000EE3F2AE0F20789F0809146
:10460000FE0A9091FF0A9183808349CE8081918137
:104610008737980751F29093FF0A8093FE0AC5CF1F
:104620001092FF0A1092FE0A3ACE0E94A50BDC01FE
:1046300012960D911C910115110509F4E8CED801CF
:10464000ED91FC910190F081E02DBE016B5E7F4FFA
:10465000C8010995811123CEF80100851185EBCFA2
:10466000181619060CF41BCED2CEF1E0FF12BECE06
:1046700062EF70E004CF1F920F920FB60F921124D9
:104680002F933F934F935F936F937F938F939F935A
:10469000AF93BF93EF93FF938091B900887F8036EB
:1046A00009F44AC0F0F5883209F4A7C018F5803142
:1046B00009F49BC0B8F4882309F4F9C0883009F4E0
:1046C00094C0FF91EF91BF91AF919F918F917F9196
:1046D0006F915F914F913F912F910F900FBE0F906F
:1046E0001F901895883109F488C0803251F7809363
:1046F0001A0314C0803409F49DC040F48033B9F328
:104700008833F9F680931A0385ECB0C0803509F43C
:1047100085C0883509F496C0883499F60E944E1FEA
:10472000D0CF883909F48CC038F5883729F050F497
:10473000883611F0803729F683E080931B031092AE
:10474000190357C0883809F47BC0803919F08038C4
:1047500009F0B7CF80911903803208F071C0E09161
:10476000190381E08E0F809319038091BB00F0E064
:10477000E750FD4F80833DC0803B39F0E0F4803A44
:1047800009F479C0883A09F09CCF84E080931B0338
:104790001092F6021092F502E091F302F091F40209
:1047A00009958091F50281110FC081E08093F50297
:1047B0001092D30209C0803C09F4A6CF883C09F4CA
:1047C000A3CF883B09F07DCFE091F60281E08E0F08
:1047D0008093F602F0E0ED52FD4F80818093BB00A4
:1047E0009091F6028091F50229C080914003809358
:1047F000BB0085EC8093BC0064CF90913F03809117
:104800003E03981758F5E0913F0381E08E0F8093A7
:104810003F03F0E0E25EFC4F8081E9CFE0913F038F
:1048200081E08E0F80933F038091BB00F0E0E25E59
:10483000FC4F808390913F0380913E039817C8F20C
:1048400085E8D8CFE0913F0381E08E0F80933F034E
:104850008091BB00F0E0E25EFC4F808380911D03FD
:1048600081115CCF81E080931C0384EA8093BC00BB
:1048700010921B0326CF85EC8093BC0010921B0383
:1048800080911903803230F4E0911903F0E0E75091
:10489000FD4F10826091190370E0E091F702F091F2
:1048A000F80289EF92E00995109219030ACF10924D
:1048B0001A0334CF7F928F929F92AF92BF92CF9282
:1048C000DF92EF92FF920F931F93CF93DF938C01B0
:1048D000762EF80183819481A581B681892B8A2B5C
:1048E0008B2BD1F00E948D0CC0908202D09083025D
:1048F000E0908402F09085026C197D098E099F0971
:10490000D8011396CD90DD90ED90FC9016976C1524
:104910007D058E059F05E8F20E948D0C6093820252
:10492000709383028093840290938502D8011B9632
:10493000ED91FC911C97309749F017964D915D9140
:104940006D917C911A97872D0995782EC091590603
:10495000D0915A0692E6C92E92E0D92E22E8A22ED4
:1049600022E0B22E7601209749F1AE14BF0431F156
:104970008E8D8823F9F0E881F98182849384068002
:10498000F781E02DCE010995BC01CE01F401099516
:10499000D7018D939C93D80111968D919C9184366B
:1049A000910508F41E860E80DF81C02DB2E0EB0E6B
:1049B000F11CD9CFF70111821082EDCFC0915906B9
:1049C000D0915A0680E1E82EF12C2097B1F08E8D1F
:1049D000882361F04C815D816A817B81E881F98166
:1049E0000280F381E02D272DCE0109950E80DF8115
:1049F000C02DE1E0EE1AF10841F7C0915906D091BF
:104A00005A062097C9F0F2E8CF16F2E0DF06A1F0CF
:104A10008E8D882351F0D6016D917C91E881F981CA
:104A20000484F585E02DCE0109950E80DF81C02D2F
:104A3000B2E0CB0ED11CE5CF809160029091610273
:104A4000EC012196D0936102C09360024997ACF1CA
:104A50000E94E50CC0905C02D0905D02E0905E0286
:104A6000F0905F029B01AC012C193D094E095F09D2
:104A700021F421E030E040E050E088EE93E0C89F70
:104A8000B001C99F700DD89F700D1124072E000C26
:104A9000880B990B0E94BF2DF8013283218310925D
:104AA0006102109260020E94E50C60935C027093B8
:104AB0005D0280935E0290935F02DF91CF911F9120
:104AC0000F91FF90EF90DF90CF90BF90AF909F90AD
:104AD0008F907F9008956091B70687EB96E00C94D5
:104AE0005A241F920F920FB60F9211240F900FBEEF
:104AF0000F901F901895EF92FF920F931F93CF93F3
:104B0000DF93F82E192FE62E042F81E0860F880FF1
:104B10000E94220D83E00E94220DCF2DD12FEC0E9A
:104B2000FD2EF11CCE15DF05B9F007FF13C0FE0105
:104B300084910E94220D182F80E00E94220D812373
:104B400021968111EFCFDF91CF911F910F91FF90AF
:104B5000EF9008958881EDCF81E0F5CFCF9310924B
:104B60005E0610925D0688EE93E0A0E0B0E08093D0
:104B70005F0690936006A0936106B09362062DEDE8
:104B800031E030935C0620935B062FEF3FEF3093CC
:104B90006806209367061092AE061092AD068093C9
:104BA000AF069093B006A093B106B093B2068FEE15
:104BB00091E09093AC068093AB068FEF8093B7069D
:104BC0001092B9061092B8061092C3061092C2064F
:104BD0004FEF5FEFBA014093BE065093BF0660935C
:104BE000C0067093C1061092BA061092BB061092CE
:104BF000BC061092BD064AEF50E060E070E04093C2
:104C0000C4065093C5066093C6067093C7061092FB
:104C10005D0710925C0726EE3AE03093EB07209395
:104C2000EA071092ED071092EC071092EF0710922E
:104C3000EE071092760721E032E030935B07209375
:104C40005A0710925F0710925E0710927307109236
:104C50006A0710926B0710926C0710926D07809391
:104C6000740780937807ECE7F7E082E997E0CFEFED
:104C7000C1938E179F07E1F781E490E1909363075A
:104C80008093620786E391E19093650780936407C0
:104C90008FE997E1909367078093660780EE98E12C
:104CA000909369078093680730E020E040E069E076
:104CB0008EE597E00E9441101092B9071092B80754
:104CC00080EF9AE0909393078093920788EC96E0A8
:104CD000909397078093960781E0809398071092AE
:104CE00099071092C7071092E7071092E307809385
:104CF000E8078093E90789E092E090939507809315
:104D000094078EE597E00E94F1111092B10710927E
:104D1000B0071092B5071092B4078FEF9FEF9093F2
:104D2000B3078093B2079093B7078093B607E091DB
:104D30009407F09195070280F381E02D8EE597E0CE
:104D400009958FE59BE09093BB078093BA0710927B
:104D5000CA07C0938707C0938807C093890761E19A
:104D600072E088E497E00E94821E61E172E08EE4C6
:104D700097E00E94821E61E172E084E597E0CF91A6
:104D80000C94821ECF93DF9300D000D000D0CDB71B
:104D9000DEB7789484B5826084BD84B5816084BDBB
:104DA00085B5826085BD85B5816085BD80916E00C9
:104DB000816080936E0010928100809181008260FA
:104DC0008093810080918100816080938100809137
:104DD0008000816080938000809191008260809348
:104DE000910080919100816080939100809190006A
:104DF0008160809390008091C10084608093C100A5
:104E00008091C10082608093C1008091C100816067
:104E10008093C1008091C30081608093C300809122
:104E2000C00082608093C0008091C2008160809346
:104E3000C20080917A00846080937A0080917A0029
:104E4000826080937A0080917A00816080937A00FA
:104E500080917A00806880937A00109258061092B0
:104E60004803109247038091D70081608093D70058
:104E700080EA8093D80089B5806189BD89B5826058
:104E800089BD09B400FEFDCF61E070E080E090E0F4
:104E90000E94B20C8091D8008F7C80618093D800F2
:104EA0008091E000807F8093E0008091E1008E7E21
:104EB0008093E1008DE08093E200559A209A8FEF75
:104EC0009FEF909368068093670680916C03811131
:104ED00050C010924E0310924D0310925003109246
:104EE0004F031092520310925103109264031092D8
:104EF00063038FEF80935303809354038093550390
:104F000080935603809357038093580381E08093E6
:104F100059031092620392E09093680380936903AF
:104F20008091590690915A06892B31F48BE493E0D5
:104F300090935A0680935906E0914903F0914A03F1
:104F4000309721F08BE493E0978386838BE493E0A2
:104F500090934A038093490310926B0310926A0363
:104F600089EA91E090934C0380934B0381E0809316
:104F70006C03579A85E793E090934E0380934D031B
:104F80008EE190E09093500380934F038091BA0696
:104F90009091BB06A091BC06B091BD06843C29E06F
:104FA0009207A105B10520F484EC99E0A0E0B0E0FF
:104FB0008093BA069093BB06A093BC06B093BD063F
:104FC00086E28093B7060E94E61D0E946B25E09161
:104FD0006207F091630730E020E040E06AE08EE590
:104FE00097E009958EE597E00E94461E8EE597E0D2
:104FF0000E941C1E8111FACF60E08EE597E00E94AE
:105000003017E0916207F091630730E020E040E064
:105010006BE08EE597E00995E0916207F0916307F8
:1050200030E020E04FEF6EE08EE597E0099562E01A
:1050300087E00E945C0C62E089E00E945C0C62E008
:105040008AE00E945C0C87E00E94050C8093740348
:1050500081EF9CE0909315018093140180916A0088
:105060008F7C806180936A00EE9A8AE00E94050C32
:1050700021E0892B09F420E02093170120931601E9
:1050800064E6262E312C412C512C50EA652E51E13C
:10509000752E43E0B42E8BE596E00E94BB0E1816E9
:1050A00019060CF043C18BE596E00E94790E8A3018
:1050B00009F024C18091400690914106009759F370
:1050C00088519C4FDC011C920E94E50C6093E40324
:1050D0007093E5038093E6039093E7031092E30354
:1050E00062E172E088EE93E00E94022F892B09F0C2
:1050F0004AC08AE192E00E94901D8EEB91E00E94EE
:10510000901D8BE591E00E94901D05E713E0C12CF6
:10511000D12C7601AA24AA940E94E61DF801A0824F
:10512000A182A2820E946B258BE391E00E944F0E28
:105130004AE0C701B6010E94A01D6FE072E08BE556
:1051400096E00E94861D68E572E080E090E00E9493
:10515000B20C0D5F1F4FFFEFCF1ADF0AEF0AFF0AF5
:105160002EE1C216D104E104F104B1F60E94E61D5D
:105170000E946B2581E291E00E94901D10924106F1
:105180001092400688CF66E172E088EE93E00E94BC
:105190002A2D7C01009709F4AEC06AE370E00E94FA
:1051A000F72E009709F463C0DC011D928D01FD010B
:1051B00001900020E9F731976F01CA1ADB0A68E114
:1051C00072E0C7010E94022F892B99F5C60166E0A3
:1051D00070E00E94F02D6B016F31710518F03EE117
:1051E000C32ED12C2BEBE22E21E0F22EC7018B5BDC
:1051F00091408C159D05D8F5C8010E94E91C982E98
:10520000C80102960E94E91CA82EC80104960E94BB
:10521000E91CD701ED917D01EE3140F4EB9DF001E9
:105220001124EB58FC4F9082A18282830A5F1F4FAA
:10523000DDCF6CE172E0C7010E94022F892BE1F4FF
:10524000C8010E940C2D8536910514F084E690E08B
:1052500097FF02C090E080E02FEF30E0DC010E9479
:105260001E2EA20191010E945E2D2093B70666E1D9
:1052700072E090E080E08BCF60E272E0C7010E94B4
:10528000022F892BB9F4C8010E940C2D8F3F910584
:1052900019F014F08FEF90E097FD80E0E091620745
:1052A000F091630730E020E0482F6EE08EE597E054
:1052B0000995DDCF64E272E0C7010E94022F892BBD
:1052C00029F4B80180E00E94C11ED1CF67E272E0EC
:1052D000C7010E94022F892B19F4B80181E0F3CF96
:1052E0006AE272E0C7010E94022F892B09F0BFCF4A
:1052F000B80182E0E8CF0E946B2540CF8D3009F4E1
:10530000CACE20914006309141062735B2E03B07D6
:1053100008F034CFA9014F5F5F4F5093410640938F
:10532000400628513C4FF9018083B5CE8AE00E94A7
:10533000050C11E0892B09F410E00E94E50C209186
:105340001701121751F06093CF037093D00380932D
:10535000D1039093D203109317010091CF031091C2
:10536000D0032091D1033091D203601B710B820BCB
:10537000930B693271058105910570F080911701D9
:1053800090911601981741F080931601811104C085
:1053900084E492E00E94901D0E94E50C0091D503E8
:1053A0001091D6032091D7033091D8036B017C0173
:1053B000C01AD10AE20AF30A970186010E311105DB
:1053C0002105310508F43FC06093D5037093D603DF
:1053D0008093D7039093D803F894C090D303D090D0
:1053E000D4031092D4031092D3037894C114D1043F
:1053F00051F18EE492E00E944F0E1C141D042CF417
:105400006BE28BE596E00E94390E0D2C000CEE0845
:10541000FF084AE0C701B601F7FE0DC06DE28BE55B
:1054200096E00E94390E66277727CB016C197D091B
:105430008E099F094AE00E94A01D6FE072E08BE593
:1054400096E00E94861D8091E303811128C00E948E
:10545000E50C0091E4031091E5032091E6033091FF
:10546000E703601B710B820B930B60327F4B824012
:105470009105A8F011E01093E3030E94E61D0E943D
:105480006B2588E497E00E942B1F8EE497E00E9432
:105490002B1F84E597E00E942B1F109318010E9498
:1054A000E50C0091D9031091DA032091DB033091D0
:1054B000DC036B017C01C01AD10AE20AF30A9701EE
:1054C00086010C3311052105310590F16093D90354
:1054D0007093DA038093DB039093DC0398E4E92E66
:1054E00097E0F92E0DED13E0DD24D394D701149647
:1054F0008D919C911597892B89F08D919C91E0EA73
:10550000F1E1F0936107E09360070E94471581384D
:1055100091050CF001C1D8011D921C92B6E0EB0E72
:10552000F11C0E5F1F4FEAE5EE16E7E0FE06F1F60E
:1055300080911801882309F4E7C08EE597E00E9466
:10554000461E8091B8079091B9078A5D924009F490
:1055500095C08AEDC82E82E0D82ED092B907C092AD
:10556000B807F60184918093CB07EBEDF2E08491CC
:105570008093CC07ECEDF2E084918093CD07EDEDC4
:10558000F2E084918093CE07EEEDF2E08491809377
:10559000CF07EFEDF2E084918093D007E0EEF2E0E8
:1055A00084918093D107E1EEF2E084918093D20759
:1055B000E2EEF2E084918093D307E3EEF2E084918F
:1055C0008093D407E4EEF2E0E491E093D507E5EEB2
:1055D000F2E0E491E093D607E6EEF2E0E491E093A6
:1055E000D707E7EEF2E0E491E093D807E8EEF2E0C7
:1055F000E491E093D907E9EEF2E0E491E093DA0771
:10560000EAEEF2E0E491E093DB0761E1C6010E947B
:10561000CF149093DD078093DC0763E1C6010E94FD
:10562000CF149093DF078093DE0765E1C6010E94E7
:10563000CF149093E1078093E0078091B807909191
:10564000B907892BD9F08091D8078093E40740915E
:10565000D9074093E5079091E307992379F09130BA
:1056600009F06BC09091DA07891714F49093E4075E
:105670008091DB07841714F48093E50786E0EFE15F
:10568000F1E0DE01119601900D928A95E1F708E4B0
:1056900017E0F12CE12CD80114968D919C9115976F
:1056A000892B09F18D919C9170926107609260073E
:1056B0000E9447156C01E1E0F0E0EC0FFD1FEE0DDC
:1056C000FF1DA080B180F801408151818138910592
:1056D0000CF04EC07092610760926007B50190E0D7
:1056E00080E00E94E7160A5F1F4FB2E0EB0EF11C4C
:1056F000E6E0EE16F10479F68EE597E00E941C1EB6
:1057000081111FCF1092180180E090E0892B09F4DD
:10571000C0CC0E940000B9CCF801208131812E5FFD
:105720003F4F4396821793072CF031832083D0920A
:105730001801F4CE11821082FACF3091D507209152
:10574000D707082E000C990B622F022E000C770B46
:10575000630F711D37FD7A95861797071CF4320F7A
:105760003093E40724170CF089CF2093E50786CF08
:10577000F701E352FC4F8080918070926107609244
:105780006007B50188279927881999090E94E716AB
:10579000D8014D915C917092610760926007C601DB
:1057A00088199909B50144969CCFCF93DF93CAE538
:1057B000D7E0269788819981009711F00E94832C69
:1057C00087E0C834D807A9F7DF91CF9108950F93E8
:1057D0001F93CF93DF938230910510F482E090E025
:1057E000E091F407F091F50730E020E0B0E0A0E0B0
:1057F000309799F42115310509F44AC0281B390B5B
:1058000024303105D8F58A819B816115710589F1B4
:10581000FB0193838283FE0111C04081518102818B
:10582000138148175907E0F04817590799F4109762
:1058300061F012960C93129713961C933296CF0137
:10584000DF91CF911F910F9108950093F40710936A
:10585000F507F4CF2115310551F04217530738F001
:10586000A901DB019A01BD01DF01F801C1CFEF0100
:10587000F9CF9093F5078093F407CDCFFE01E20FA7
:10588000F31F819391932250310939832883D7CF15
:105890002091F2073091F307232B41F420911B0153
:1058A00030911C013093F3072093F20720911901E6
:1058B00030911A012115310541F42DB73EB74091C1
:1058C0001D0150911E01241B350BE091F207F09150
:1058D000F307E217F307A0F42E1B3F0B2817390735
:1058E00078F0AC014E5F5F4F2417350748F04E0F3C
:1058F0005F1F5093F3074093F207819391939FCFDB
:10590000F0E0E0E09CCFCF93DF930097E9F0FC015B
:10591000329713821282A091F407B091F507ED013E
:1059200030E020E01097A1F420813181820F931F95
:105930002091F2073091F3072817390709F061C069
:10594000F093F307E093F207DF91CF910895EA0116
:10595000CE17DF07E8F54A815B819E0141155105AD
:10596000B1F7E901FB83EA8349915991C40FD51F2F
:10597000EC17FD0761F4808191810296840F951FD9
:10598000E90199838883828193819B838A83F0E0F4
:10599000E0E012968D919C9113970097B9F52D91A7
:1059A0003C911197CD010296820F931F2091F2072F
:1059B0003091F3072817390739F6309751F51092CF
:1059C000F5071092F407B093F307A093F207BCCF4A
:1059D000D383C28340815181840F951FC817D90793
:1059E00061F44E5F5F4F88819981480F591F518341
:1059F00040838A819B81938382832115310509F03D
:105A0000B0CFF093F507E093F4079ECFFD01DC01E2
:105A1000C0CF13821282D7CFFC0188279927E89440
:105A200021912032E9F3293010F02E30C8F32B32C7
:105A300041F02D3239F4689404C00E94562D820F33
:105A4000911D219120532A30C0F31EF49095819529
:105A50009F4F089540EF57E00E942F2D0895FA01BF
:105A6000A191B081009719F41097E1F0CD01DC010C
:105A7000CD010D90002011F4C00113C0FB01219154
:105A8000222319F02015D9F7F3CFFB01219120151E
:105A900019F41E92119606C02223C1F70D90002022
:105AA000A1F7D001FA01A193B08308957AE0979FFE
:105AB000902D879F802D910D11240895052E97FB21
:105AC0001EF400940E94752D57FD07D00E94BF2D33
:105AD00007FC03D04EF40C94752D509540953095ED
